:100000000C9434000C9446000C9446000C9446006A
:100010000C9446000C9446000C9446000C94460048
:100020000C9446000C9446000C9446000C94460038
:100030000C9446000C9446000C9446000C94460028
:100040000C9446000C9446000C9446000C94460018
:100050000C9446000C9446000C9446000C94460008
:100060000C9446000C94460011241FBECFEFD8E03C
:10007000DEBFCDBF21E0A0E0B1E001C01D92A33002
:10008000B207E1F70E94F9000C9414010C940000EF
:10009000209A529853985A9A5B9A089590917C00AE
:1000A000987F90937C0090917C008770982B909320
:1000B0007C0080917A00806480937A0080917A003D
:1000C00084FFFCCF80917A00806180937A008091D8
:1000D000780090917900089580E480937C0087E80F
:1000E00080937A000895E0E8F0E08081836880835F
:1000F000E1E8F0E080818B608083229A0895823D60
:10010000910588F48DEC90E09093890080938800AD
:100110002FEF49EF80E0215040408040E1F700C0E0
:10012000000084E108959C01225D31092C323140A8
:1001300088F48AE991E090938900809388008FEF9A
:1001400099EF20E0815090402040E1F700C000008E
:1001500089E108959C012E5F3140283C310588F4E7
:100160008DEC92E090938900809388004FEF89EFA7
:1001700090E0415080409040E1F700C000008DE1E8
:100180000895865C92408B33914088F48DEC93E027
:1001900090938900809388004FEF89EF90E0415061
:1001A00080409040E1F700C0000081E20895109285
:1001B00089001092880080E008958093C400909395
:1001C000C50084E48093C20088ED8093C100089547
:1001D0009091C00095FFFCCF8093C60008950E94C7
:1001E00048000E946C000E94730087E690E00C9427
:1001F000DD000E94EF004A9911C04B990FC0289A68
:1002000080E00E944E0090930201809301010E94C1
:100210007F00809300010E94E800EDCF28981092A3
:0C022000890010928800E7CFF894FFCF0F
:00000001FF
